10400900         20001234560011111200709P    0000   0095550000000000032 CONVE  DE PAGAMENTOSSA E OEBSACAIXA                                   20602202710234200010100001600                                                      000            
10400011C3001041 20001234560011111200702000201      0095550000000000032 CONVE  DE PAGAMENTOSSA E PENSA                                          RUA ALMIR PEDRAS            00000000000000000000                    00000                       
1040001300001A0000001040095550031993933180 TEREZINHA SEVERIANA           000027             105022023BRL000000000000000000000000120012000000000   01N1060000000000000000000000000                                        01          0          
1040001300002B   000000000000000                              00104APTO 315       CENTRO         RIO DE JANEIRO      22544010RJ06022023000000000120012000000000000000000000000000000000000000000000000000000000000                              
1040001300003A0000001040095550031993933180 TEREZINHA SEVERIANA           000027             105022023BRL000000000000000000000000120012000000000   01N1060000000000000000000000000                                        01          0          
1040001300004B   000000000000000                              00104APTO 315       CENTRO         RIO DE JANEIRO      22544010RJ06022023000000000120012000000000000000000000000000000000000000000000000000000000000                              
10400015         000006000000000000240024000000000000000000000000                                                                                                                                                                               
10400021C3001041 20001234560011111200702000201      0095550000000000032 CONVE  DE PAGAMENTOSSA E PENSA                                          RUA ALMIR PEDRAS            00000000000000000000                    00000                       
1040002300001A0000001040095550031993933180 TEREZINHA SEVERIANA           000027             105022023BRL000000000000000000000000120012000000000   01N1060000000000000000000000000                                        01          0          
1040002300002B   000000000000000                              00104APTO 315       CENTRO         RIO DE JANEIRO      22544010RJ06022023000000000120012000000000000000000000000000000000000000000000000000000000000                              
1040002300003A0000001040095550031993933180 TEREZINHA SEVERIANA           000027             105022023BRL000000000000000000000000120012000000000   01N1060000000000000000000000000                                        01          0          
1040002300004B   000000000000000                              00104APTO 315       CENTRO         RIO DE JANEIRO      22544010RJ06022023000000000120012000000000000000000000000000000000000000000000000000000000000                              
1040002300005A0000001040095550031993933180 TEREZINHA SEVERIANA           000027             105022023BRL000000000000000000000000120012000000000   01N1060000000000000000000000000                                        01          0          
1040002300006B   000000000000000                              00104APTO 315       CENTRO         RIO DE JANEIRO      22544010RJ06022023000000000120012000000000000000000000000000000000000000000000000000000000000                              
10400025         000008000000000000360036000000000000000000000000                                                                                                                                                                               
10499999         000002000016000000                                                                                                                                                                                                             