10400900         20001234560011111200709P    0000   0095550000000000032 CONVE  DE PAGAMENTOSSA E OEBSACAIXA                                   20602202710234200010100001600                                                      000            
10400011C3001041 20001234560011111200702000201      0095550000000000032 CONVE  DE PAGAMENTOSSA E PENSA                                          RUA ALMIR PEDRAS                                                                                
1040001300001A0000001040095550031993933180 TEREZINHA SEVERIANA           000027             105022023BRL000000000000000000000001347272000000000   01N1060000000000000000000000000                                        01          0          
1040001300002B000100097654026005RUA ALAMEDA                   00104APTO 315       CENTRO         RIO DE JANEIRO      22544010RJ06022023000000001347272000000000000000000000000000000000000000000000000000000000000                              
10400015         00000200000000000000020000000000000000000000                                                                                                                                                                                   
10499995         000001000001000000                                                                                                                                                                                                             